{"abi":[{"type":"constructor","inputs":[{"name":"vrfCoordinatorV2","type":"address","internalType":"address"},{"name":"entranceFee","type":"uint256","internalType":"uint256"},{"name":"keyHash","type":"bytes32","internalType":"bytes32"},{"name":"subscriptionId","type":"uint256","internalType":"uint256"},{"name":"callbackGasLimit","type":"uint32","internalType":"uint32"}],"stateMutability":"nonpayable"},{"type":"function","name":"acceptOwnership","inputs":[],"outputs":[],"stateMutability":"nonpayable"},{"type":"function","name":"enterLottery","inputs":[],"outputs":[],"stateMutability":"payable"},{"type":"function","name":"getEntranceFee","inputs":[],"outputs":[{"name":"","type":"uint256","internalType":"uint256"}],"stateMutability":"view"},{"type":"function","name":"getLotteryState","inputs":[],"outputs":[{"name":"","type":"uint8","internalType":"enum Lottery.LotteryState"}],"stateMutability":"view"},{"type":"function","name":"getNumberOfPlayers","inputs":[],"outputs":[{"name":"","type":"uint256","internalType":"uint256"}],"stateMutability":"view"},{"type":"function","name":"getPlayer","inputs":[{"name":"index","type":"uint256","internalType":"uint256"}],"outputs":[{"name":"","type":"address","internalType":"address"}],"stateMutability":"view"},{"type":"function","name":"getRecentWinner","inputs":[],"outputs":[{"name":"","type":"address","internalType":"address"}],"stateMutability":"view"},{"type":"function","name":"owner","inputs":[],"outputs":[{"name":"","type":"address","internalType":"address"}],"stateMutability":"view"},{"type":"function","name":"pickWinner","inputs":[],"outputs":[],"stateMutability":"nonpayable"},{"type":"function","name":"rawFulfillRandomWords","inputs":[{"name":"requestId","type":"uint256","internalType":"uint256"},{"name":"randomWords","type":"uint256[]","internalType":"uint256[]"}],"outputs":[],"stateMutability":"nonpayable"},{"type":"function","name":"s_vrfCoordinator","inputs":[],"outputs":[{"name":"","type":"address","internalType":"contract IVRFCoordinatorV2Plus"}],"stateMutability":"view"},{"type":"function","name":"setCoordinator","inputs":[{"name":"_vrfCoordinator","type":"address","internalType":"address"}],"outputs":[],"stateMutability":"nonpayable"},{"type":"function","name":"transferOwnership","inputs":[{"name":"to","type":"address","internalType":"address"}],"outputs":[],"stateMutability":"nonpayable"},{"type":"event","name":"CoordinatorSet","inputs":[{"name":"vrfCoordinator","type":"address","indexed":false,"internalType":"address"}],"anonymous":false},{"type":"event","name":"LotteryEnter","inputs":[{"name":"player","type":"address","indexed":true,"internalType":"address"}],"anonymous":false},{"type":"event","name":"OwnershipTransferRequested","inputs":[{"name":"from","type":"address","indexed":true,"internalType":"address"},{"name":"to","type":"address","indexed":true,"internalType":"address"}],"anonymous":false},{"type":"event","name":"OwnershipTransferred","inputs":[{"name":"from","type":"address","indexed":true,"internalType":"address"},{"name":"to","type":"address","indexed":true,"internalType":"address"}],"anonymous":false},{"type":"event","name":"RequestedWinner","inputs":[{"name":"requestId","type":"uint256","indexed":true,"internalType":"uint256"}],"anonymous":false},{"type":"event","name":"WinnerPicked","inputs":[{"name":"winner","type":"address","indexed":true,"internalType":"address"}],"anonymous":false},{"type":"error","name":"Lottery_LotteryNotOpen","inputs":[]},{"type":"error","name":"Lottery_NotEnoughEthEntered","inputs":[]},{"type":"error","name":"Lottery_TransferFailed","inputs":[]},{"type":"error","name":"OnlyCoordinatorCanFulfill","inputs":[{"name":"have","type":"address","internalType":"address"},{"name":"want","type":"address","internalType":"address"}]},{"type":"error","name":"OnlyOwnerOrCoordinator","inputs":[{"name":"have","type":"address","internalType":"address"},{"name":"owner","type":"address","internalType":"address"},{"name":"coordinator","type":"address","internalType":"address"}]},{"type":"error","name":"ZeroAddress","inputs":[]}],"bytecode":{"object":"0x610100604052348015610010575f5ffd5b50604051611f8c380380611f8c83398181016040528101906100329190610457565b8433805f5f73ffffffffffffffffffffffffffffffffffffffff168273ffffffffffffffffffffffffffffffffffffffff16036100a4576040517f08c379a000000000000000000000000000000000000000000000000000000000815260040161009b90610528565b60405180910390fd5b815f5f6101000a81548173ffffffffffffffffffffffffffffffffffffffff021916908373ffffffffffffffffffffffffffffffffffffffff1602179055505f73ffffffffffffffffffffffffffffffffffffffff168173ffffffffffffffffffffffffffffffffffffffff1614610126576101258161022f60201b60201c565b5b5050505f73ffffffffffffffffffffffffffffffffffffffff168173ffffffffffffffffffffffffffffffffffffffff160361018e576040517fd92e233d00000000000000000000000000000000000000000000000000000000815260040160405180910390fd5b8060025f6101000a81548173ffffffffffffffffffffffffffffffffffffffff021916908373ffffffffffffffffffffffffffffffffffffffff1602179055505083608081815250508260c081815250508160a081815250508063ffffffff1660e08163ffffffff16815250505f600460146101000a81548160ff021916908360018111156102205761021f610546565b5b021790555050505050506105db565b3373ffffffffffffffffffffffffffffffffffffffff168173ffffffffffffffffffffffffffffffffffffffff160361029d576040517f08c379a0000000000000000000000000000000000000000000000000000000008152600401610294906105bd565b60405180910390fd5b8060015f6101000a81548173ffffffffffffffffffffffffffffffffffffffff021916908373ffffffffffffffffffffffffffffffffffffffff1602179055508073ffffffffffffffffffffffffffffffffffffffff165f5f9054906101000a900473ffffffffffffffffffffffffffffffffffffffff1673ffffffffffffffffffffffffffffffffffffffff167fed8889f560326eb138920d842192f0eb3dd22b4f139c87a2c57538e05bae127860405160405180910390a350565b5f5ffd5b5f73ffffffffffffffffffffffffffffffffffffffff82169050919050565b5f6103878261035e565b9050919050565b6103978161037d565b81146103a1575f5ffd5b50565b5f815190506103b28161038e565b92915050565b5f819050919050565b6103ca816103b8565b81146103d4575f5ffd5b50565b5f815190506103e5816103c1565b92915050565b5f819050919050565b6103fd816103eb565b8114610407575f5ffd5b50565b5f81519050610418816103f4565b92915050565b5f63ffffffff82169050919050565b6104368161041e565b8114610440575f5ffd5b50565b5f815190506104518161042d565b92915050565b5f5f5f5f5f60a086880312156104705761046f61035a565b5b5f61047d888289016103a4565b955050602061048e888289016103d7565b945050604061049f8882890161040a565b93505060606104b0888289016103d7565b92505060806104c188828901610443565b9150509295509295909350565b5f82825260208201905092915050565b7f43616e6e6f7420736574206f776e657220746f207a65726f00000000000000005f82015250565b5f6105126018836104ce565b915061051d826104de565b602082019050919050565b5f6020820190508181035f83015261053f81610506565b9050919050565b7f4e487b71000000000000000000000000000000000000000000000000000000005f52602160045260245ffd5b7f43616e6e6f74207472616e7366657220746f2073656c660000000000000000005f82015250565b5f6105a76017836104ce565b91506105b282610573565b602082019050919050565b5f6020820190508181035f8301526105d48161059b565b9050919050565b60805160a05160c05160e0516119776106155f395f61054701525f6104f001525f61051601525f81816102ae01526109f801526119775ff3fe6080604052600436106100c1575f3560e01c80638da5cb5b1161007e578063c1af578511610058578063c1af578514610213578063e55ae4e81461021d578063f2fde38b14610259578063fd6673f514610281576100c1565b80638da5cb5b146101975780638ea98117146101c15780639eccacf6146101e9576100c1565b806309bc33a7146100c55780631fe543e3146100ef578063473f1ddc146101175780635d495aea146101415780636b68c03c1461015757806379ba509714610181575b5f5ffd5b3480156100d0575f5ffd5b506100d96102ab565b6040516100e691906110f1565b60405180910390f35b3480156100fa575f5ffd5b506101156004803603810190610110919061119d565b6102d2565b005b348015610122575f5ffd5b5061012b610396565b6040516101389190611239565b60405180910390f35b34801561014c575f5ffd5b506101556103be565b005b348015610162575f5ffd5b5061016b610628565b60405161017891906112c5565b60405180910390f35b34801561018c575f5ffd5b5061019561063e565b005b3480156101a2575f5ffd5b506101ab6107cd565b6040516101b89190611239565b60405180910390f35b3480156101cc575f5ffd5b506101e760048036038101906101e29190611308565b6107f4565b005b3480156101f4575f5ffd5b506101fd6109d1565b60405161020a919061138e565b60405180910390f35b61021b6109f6565b005b348015610228575f5ffd5b50610243600480360381019061023e91906113a7565b610b61565b6040516102509190611239565b60405180910390f35b348015610264575f5ffd5b5061027f600480360381019061027a9190611308565b610ba5565b005b34801561028c575f5ffd5b50610295610bb9565b6040516102a291906110f1565b60405180910390f35b5f7f0000000000000000000000000000000000000000000000000000000000000000905090565b60025f9054906101000a900473ffffffffffffffffffffffffffffffffffffffff1673ffffffffffffffffffffffffffffffffffffffff163373ffffffffffffffffffffffffffffffffffffffff1614610386573360025f9054906101000a900473ffffffffffffffffffffffffffffffffffffffff166040517f1cf993f400000000000000000000000000000000000000000000000000000000815260040161037d9291906113d2565b60405180910390fd5b610391838383610bc5565b505050565b5f60045f9054906101000a900473ffffffffffffffffffffffffffffffffffffffff16905090565b5f60018111156103d1576103d0611252565b5b600460149054906101000a900460ff1660018111156103f3576103f2611252565b5b14610433576040517f08c379a000000000000000000000000000000000000000000000000000000000815260040161042a90611453565b60405180910390fd5b5f6003805490501161047a576040517f08c379a0000000000000000000000000000000000000000000000000000000008152600401610471906114bb565b60405180910390fd5b6001600460146101000a81548160ff021916908360018111156104a05761049f611252565b5b02179055505f60025f9054906101000a900473ffffffffffffffffffffffffffffffffffffffff1673ffffffffffffffffffffffffffffffffffffffff16639b1c385e6040518060c001604052807f000000000000000000000000000000000000000000000000000000000000000081526020017f00000000000000000000000000000000000000000000000000000000000000008152602001600361ffff1681526020017f000000000000000000000000000000000000000000000000000000000000000063ffffffff168152602001600163ffffffff16815260200161059760405180602001604052805f1515815250610de4565b8152506040518263ffffffff1660e01b81526004016105b69190611630565b6020604051808303815f875af11580156105d2573d5f5f3e3d5ffd5b505050506040513d601f19601f820116820180604052508101906105f69190611664565b9050807fb67476d1d38e93caac2ca37113122e613c199269c4cea0d39c67807a6442b40a60405160405180910390a250565b5f600460149054906101000a900460ff16905090565b60015f9054906101000a900473ffffffffffffffffffffffffffffffffffffffff1673ffffffffffffffffffffffffffffffffffffffff163373ffffffffffffffffffffffffffffffffffffffff16146106cd576040517f08c379a00000000000000000000000000000000000000000000000000000000081526004016106c4906116d9565b60405180910390fd5b5f5f5f9054906101000a900473ffffffffffffffffffffffffffffffffffffffff169050335f5f6101000a81548173ffffffffffffffffffffffffffffffffffffffff021916908373ffffffffffffffffffffffffffffffffffffffff1602179055505f60015f6101000a81548173ffffffffffffffffffffffffffffffffffffffff021916908373ffffffffffffffffffffffffffffffffffffffff1602179055503373ffffffffffffffffffffffffffffffffffffffff168173ffffffffffffffffffffffffffffffffffffffff167f8be0079c531659141344cd1fd0a4f28419497f9722a3daafe3b4186f6b6457e060405160405180910390a350565b5f5f5f9054906101000a900473ffffffffffffffffffffffffffffffffffffffff16905090565b6107fc6107cd565b73ffffffffffffffffffffffffffffffffffffffff163373ffffffffffffffffffffffffffffffffffffffff1614158015610884575060025f9054906101000a900473ffffffffffffffffffffffffffffffffffffffff1673ffffffffffffffffffffffffffffffffffffffff163373ffffffffffffffffffffffffffffffffffffffff1614155b156108f257336108926107cd565b60025f9054906101000a900473ffffffffffffffffffffffffffffffffffffffff166040517f061db9c10000000000000000000000000000000000000000000000000000000081526004016108e9939291906116f7565b60405180910390fd5b5f73ffffffffffffffffffffffffffffffffffffffff168173ffffffffffffffffffffffffffffffffffffffff1603610957576040517fd92e233d00000000000000000000000000000000000000000000000000000000815260040160405180910390fd5b8060025f6101000a81548173ffffffffffffffffffffffffffffffffffffffff021916908373ffffffffffffffffffffffffffffffffffffffff1602179055507fd1a6a14209a385a964d036e404cb5cfb71f4000cdb03c9366292430787261be6816040516109c69190611239565b60405180910390a150565b60025f9054906101000a900473ffffffffffffffffffffffffffffffffffffffff1681565b7f0000000000000000000000000000000000000000000000000000000000000000341015610a50576040517f1044bcb000000000000000000000000000000000000000000000000000000000815260040160405180910390fd5b5f6001811115610a6357610a62611252565b5b600460149054906101000a900460ff166001811115610a8557610a84611252565b5b14610abc576040517f6a5c41ce00000000000000000000000000000000000000000000000000000000815260040160405180910390fd5b600333908060018154018082558091505060019003905f5260205f20015f9091909190916101000a81548173ffffffffffffffffffffffffffffffffffffffff021916908373ffffffffffffffffffffffffffffffffffffffff1602179055503373ffffffffffffffffffffffffffffffffffffffff167f1d64fb5ba9f2548c5b98468d58f25b87b9e866afee0122e92d9fe722bf85076c60405160405180910390a2565b5f60038281548110610b7657610b7561172c565b5b905f5260205f20015f9054906101000a900473ffffffffffffffffffffffffffffffffffffffff169050919050565b610bad610e7c565b610bb681610f0c565b50565b5f600380549050905090565b5f60038054905083835f818110610bdf57610bde61172c565b5b90506020020135610bf09190611786565b90505f60038281548110610c0757610c0661172c565b5b905f5260205f20015f9054906101000a900473ffffffffffffffffffffffffffffffffffffffff1690508060045f6101000a81548173ffffffffffffffffffffffffffffffffffffffff021916908373ffffffffffffffffffffffffffffffffffffffff1602179055505f67ffffffffffffffff811115610c8b57610c8a6117b6565b5b604051908082528060200260200182016040528015610cb95781602001602082028036833780820191505090505b5060039080519060200190610ccf929190611037565b505f600460146101000a81548160ff02191690836001811115610cf557610cf4611252565b5b02179055508073ffffffffffffffffffffffffffffffffffffffff167f5b690ec4a06fe979403046eaeea5b3ce38524683c3001f662c8b5a829632f7df60405160405180910390a25f8173ffffffffffffffffffffffffffffffffffffffff1647604051610d6290611810565b5f6040518083038185875af1925050503d805f8114610d9c576040519150601f19603f3d011682016040523d82523d5f602084013e610da1565b606091505b5050905080610ddc576040517faca80e4300000000000000000000000000000000000000000000000000000000815260040160405180910390fd5b505050505050565b60607f92fd13387c7fe7befbc38d303d6468778fb9731bc4583f17d92989c6fcfdeaaa82604051602401610e189190611858565b604051602081830303815290604052907bffffffffffffffffffffffffffffffffffffffffffffffffffffffff19166020820180517bffffffffffffffffffffffffffffffffffffffffffffffffffffffff83818316178352505050509050919050565b5f5f9054906101000a900473ffffffffffffffffffffffffffffffffffffffff1673ffffffffffffffffffffffffffffffffffffffff163373ffffffffffffffffffffffffffffffffffffffff1614610f0a576040517f08c379a0000000000000000000000000000000000000000000000000000000008152600401610f01906118bb565b60405180910390fd5b565b3373ffffffffffffffffffffffffffffffffffffffff168173ffffffffffffffffffffffffffffffffffffffff1603610f7a576040517f08c379a0000000000000000000000000000000000000000000000000000000008152600401610f7190611923565b60405180910390fd5b8060015f6101000a81548173ffffffffffffffffffffffffffffffffffffffff021916908373ffffffffffffffffffffffffffffffffffffffff1602179055508073ffffffffffffffffffffffffffffffffffffffff165f5f9054906101000a900473ffffffffffffffffffffffffffffffffffffffff1673ffffffffffffffffffffffffffffffffffffffff167fed8889f560326eb138920d842192f0eb3dd22b4f139c87a2c57538e05bae127860405160405180910390a350565b828054828255905f5260205f209081019282156110ad579160200282015b828111156110ac578251825f6101000a81548173ffffffffffffffffffffffffffffffffffffffff021916908373ffffffffffffffffffffffffffffffffffffffff16021790555091602001919060010190611055565b5b5090506110ba91906110be565b5090565b5b808211156110d5575f815f9055506001016110bf565b5090565b5f819050919050565b6110eb816110d9565b82525050565b5f6020820190506111045f8301846110e2565b92915050565b5f5ffd5b5f5ffd5b61111b816110d9565b8114611125575f5ffd5b50565b5f8135905061113681611112565b92915050565b5f5ffd5b5f5ffd5b5f5ffd5b5f5f83601f84011261115d5761115c61113c565b5b8235905067ffffffffffffffff81111561117a57611179611140565b5b60208301915083602082028301111561119657611195611144565b5b9250929050565b5f5f5f604084860312156111b4576111b361110a565b5b5f6111c186828701611128565b935050602084013567ffffffffffffffff8111156111e2576111e161110e565b5b6111ee86828701611148565b92509250509250925092565b5f73ffffffffffffffffffffffffffffffffffffffff82169050919050565b5f611223826111fa565b9050919050565b61123381611219565b82525050565b5f60208201905061124c5f83018461122a565b92915050565b7f4e487b71000000000000000000000000000000000000000000000000000000005f52602160045260245ffd5b600281106112905761128f611252565b5b50565b5f8190506112a08261127f565b919050565b5f6112af82611293565b9050919050565b6112bf816112a5565b82525050565b5f6020820190506112d85f8301846112b6565b92915050565b6112e781611219565b81146112f1575f5ffd5b50565b5f81359050611302816112de565b92915050565b5f6020828403121561131d5761131c61110a565b5b5f61132a848285016112f4565b91505092915050565b5f819050919050565b5f61135661135161134c846111fa565b611333565b6111fa565b9050919050565b5f6113678261133c565b9050919050565b5f6113788261135d565b9050919050565b6113888161136e565b82525050565b5f6020820190506113a15f83018461137f565b92915050565b5f602082840312156113bc576113bb61110a565b5b5f6113c984828501611128565b91505092915050565b5f6040820190506113e55f83018561122a565b6113f2602083018461122a565b9392505050565b5f82825260208201905092915050565b7f4c6f7474657279206973206e6f74206f70656e000000000000000000000000005f82015250565b5f61143d6013836113f9565b915061144882611409565b602082019050919050565b5f6020820190508181035f83015261146a81611431565b9050919050565b7f4e6f20706c617965727320696e20746865206c6f7474657279000000000000005f82015250565b5f6114a56019836113f9565b91506114b082611471565b602082019050919050565b5f6020820190508181035f8301526114d281611499565b9050919050565b5f819050919050565b6114eb816114d9565b82525050565b6114fa816110d9565b82525050565b5f61ffff82169050919050565b61151681611500565b82525050565b5f63ffffffff82169050919050565b6115348161151c565b82525050565b5f81519050919050565b5f82825260208201905092915050565b8281835e5f83830152505050565b5f601f19601f8301169050919050565b5f61157c8261153a565b6115868185611544565b9350611596818560208601611554565b61159f81611562565b840191505092915050565b5f60c083015f8301516115bf5f8601826114e2565b5060208301516115d260208601826114f1565b5060408301516115e5604086018261150d565b5060608301516115f8606086018261152b565b50608083015161160b608086018261152b565b5060a083015184820360a08601526116238282611572565b9150508091505092915050565b5f6020820190508181035f83015261164881846115aa565b905092915050565b5f8151905061165e81611112565b92915050565b5f602082840312156116795761167861110a565b5b5f61168684828501611650565b91505092915050565b7f4d7573742062652070726f706f736564206f776e6572000000000000000000005f82015250565b5f6116c36016836113f9565b91506116ce8261168f565b602082019050919050565b5f6020820190508181035f8301526116f0816116b7565b9050919050565b5f60608201905061170a5f83018661122a565b611717602083018561122a565b611724604083018461122a565b949350505050565b7f4e487b71000000000000000000000000000000000000000000000000000000005f52603260045260245ffd5b7f4e487b71000000000000000000000000000000000000000000000000000000005f52601260045260245ffd5b5f611790826110d9565b915061179b836110d9565b9250826117ab576117aa611759565b5b828206905092915050565b7f4e487b71000000000000000000000000000000000000000000000000000000005f52604160045260245ffd5b5f81905092915050565b50565b5f6117fb5f836117e3565b9150611806826117ed565b5f82019050919050565b5f61181a826117f0565b9150819050919050565b5f8115159050919050565b61183881611824565b82525050565b602082015f8201516118525f85018261182f565b50505050565b5f60208201905061186b5f83018461183e565b92915050565b7f4f6e6c792063616c6c61626c65206279206f776e6572000000000000000000005f82015250565b5f6118a56016836113f9565b91506118b082611871565b602082019050919050565b5f6020820190508181035f8301526118d281611899565b9050919050565b7f43616e6e6f74207472616e7366657220746f2073656c660000000000000000005f82015250565b5f61190d6017836113f9565b9150611918826118d9565b602082019050919050565b5f6020820190508181035f83015261193a81611901565b905091905056fea2646970667358221220249974aedbd662249d7f3977c27aad95e50f42306dceff05993bc2b3ecc810e264736f6c634300081e0033","linkReferences":{}},"methodIdentifiers":{"acceptOwnership()":"79ba5097","enterLottery()":"c1af5785","getEntranceFee()":"09bc33a7","getLotteryState()":"6b68c03c","getNumberOfPlayers()":"fd6673f5","getPlayer(uint256)":"e55ae4e8","getRecentWinner()":"473f1ddc","owner()":"8da5cb5b","pickWinner()":"5d495aea","rawFulfillRandomWords(uint256,uint256[])":"1fe543e3","s_vrfCoordinator()":"9eccacf6","setCoordinator(address)":"8ea98117","transferOwnership(address)":"f2fde38b"},"id":24}